:100000006F00C05200000000DA010000DC010000B7
:1000100000000000000000000000000000000000E0
:1000200000000000000000000000000000000000D0
:100030002A050000000000002A0500000000000062
:100040002A0500002A0500002A0500002A050000F4
:100050002A0500002A0500002A0500002A050000E4
:100060002A0500002A0500002A0500002A050000D4
:100070002A0500002A0500002A0500002A050000C4
:100080002A0500002A0500002A0500002A050000B4
:100090002A0500002A0500002A05000000000000D3
:1000A000511126C022C206C4828282441244A24058
:1000B00031018280634E050263C305042E86AA8542
:1000C0007D5515C285466378B6006356C0000606A6
:1000D0008606E36CB6FE014563E4C500918D558D3F
:1000E00085820582F5FA82808682C93F2E858282CA
:1000F0003305A04063D70500B305B040C1B7B305D1
:10010000B0408682653F3305A0408282868263C705
:100110000500634905005D372E858282B305B04036
:10012000E35B05FE3305A040513F3305B0408282BA
:1001300000003D432A876373C3029377F700BDEF46
:10014000ADE5937606FF3D8ABA960CC34CC30CC747
:100150004CC74107E36BD7FE11E28280B306C34070
:100160008A069702000096966780A6002307B700CC
:10017000A306B7002306B700A305B7002305B70001
:10018000A304B7002304B700A303B7002303B700F9
:10019000A302B7002302B700A301B7002301B700F1
:1001A000A300B7002300B700828093F5F50F939664
:1001B0008500D58D93960501D58D61B7939627005F
:1001C0009702000096968682E78086FA9680C1178D
:1001D0001D8F3E96E374C3F8A5B701A001A0EFF20E
:1001E0003FECAA840565130141FD2E84130515819A
:1001F000854532C002C802CA02CC02CE02D002D269
:1002000002D402C202C423160100792D370516005C
:10021000854513050504792B93070004FC80F147FD
:100220003ECC0C088947371501403ECA092360823D
:10023000373401404C00130504C0648423150100C9
:100240002313010045250246C167938707066C0802
:10025000130504C03ECE2311C10223120102EF0098
:10026000406D130504C08545EF00C074130504C03C
:10027000A145EF002077130504C08545EF00E07429
:100280008545130504C0EF0060711301C10231BD43
:10029000EFF21FE11301C1FD614681456800513D48
:1002A00085451305000202C002C202C4F52B854534
:1002B00013050020D52B3165F12B371501409147EF
:1002C0008A8513050540372401407C8002C48521BE
:1002D00013050440C524B7070E003ECC6C008547CB
:1002E000130504402300F10202C602C802CA02CE6E
:1002F000E52413050440B7050002052185451305D3
:1003000004401526130141024DB3EFF27FD9372483
:100310000140AA859D460546130504400D2E8545DE
:1003200013050440092E9304044089452685CD26F3
:100330006DDD13050440C92E8DBBEFF27FD6511140
:100340008545114502C002C202C4B92B8947371442
:1003500001407C80C1473EC48A858D4713050480D7
:100360003EC2F12601468945130504803D2931012D
:100370002DBBEFF2FFD205450123A122AD2D753F24
:10038000013F1306003C81451305F077893D370492
:1003900000200D459D3F130704001C43898F93D611
:1003A000F741B58F958F9546E3D5F6FE08C3130741
:1003B000F03FAA876374A7009307F03FC207C18389
:1003C000139547001D8D1E059305F03F1D8DFD31D2
:1003D0009315050137350140C181130505C0112D65
:1003E0004DBFEFF2FFCB371402401C403707FFF838
:1003F000414593E717001CC05C40F98F5CC01C406E
:100400003707F7FE7D17F98F1CC01C403707FCFF2C
:100410007D17F98F1CC05C4041777D17F98F5CC058
:10042000B7079F001CC4B1291C4C93E707021CCCE2
:10043000B717014003A70740938607401377F7F0EB
:1004400023A0E74003A707401367070823A0E7405E
:1004500089479CCAB7F7FF1F03C5477D9307F00F75
:100460006304F5007D893129B72702409843C1769E
:10047000FD16719B98C398431367170098C3B7176D
:100480000240D843D8C3D843758FD8C3D843B706E2
:100490000001D8C39843558F98C3984393166700BB
:1004A000E3DD06FED843B7160240719BD8C3D8439C
:1004B00013672700D8C32147DC42B18BE39EE7FED8
:1004C000EDB6EFF2FFBD371702405C433704002062
:1004D0009146B18B130444016385D700A146638024
:1004E000D704B7376E01938707601CC0B716024068
:1004F000DC420840918313F7F700B7070020938789
:100500004700BA978C23DC4293F5F50F93F7070861
:100510003357B50099E35D362A8718C079B65C4336
:10052000B777DC02938707C0C9B701A09701002005
:100530009381C12E138181FE170500001305C54F5D
:1005400097050020938505AC17060020130606AD1D
:1005500063FAC5008322050023A05500110591050B
:10056000E3EAC5FE17050020130545AB938581809E
:100570006377B500232005001105E36DB5FEB722B2
:10058000000093820288739002308D427390428003
:1005900097020000938202A793E2320073905230D8
:1005A000EFF03FE4970200009382E2DC7390123494
:1005B00073002030B727014093870740631DF50083
:1005C000EFF21FAE854513050020F52C814513057C
:1005D0000020D52CD9BC82805C413707F1FF13077E
:1005E000F7EF7D8FDC419441A207D58FD98F5CC195
:1005F0001C4537F7F1FF1307D77FD4457D8F9C4902
:10060000D58F94458606D58FD98F1CC55C55370785
:1006100010FF7D177D8FDC29FD1793F7F70FD207A9
:10062000D98F5CD582801C4589C593E717001CC50E
:100630008280F99BEDBF1C4591C537075000D98FCB
:100640001CC582803707B0FF7D17F98FD5BFA5473E
:1006500063F8B704138765FF931717008322C5005B
:10066000BA971D433313F3001343F3FF337353005F
:10067000B397F600B3E767005CC5994763E3C70427
:100680007D16931726003E965859FD47B397C7002D
:1006900093C7F7FFF98FB395C500DD8D4CD98280E4
:1006A0009397150003230501AE971D473317F700F5
:1006B0001347F7FF33776700B397F6005D8F18C9CC
:1006C0006DBFB14763E2C7026516931726003E96D9
:1006D0001859FD47B397C70093C7F7FFF98FB39534
:1006E000C500DD8D0CD982804D1613172600545598
:1006F0003A96FD47B397C70093C7F7FFF58FB395B9
:10070000C500DD8D4CD582806845420541818280DF
:1007100008416D8D3335A00082805C41370700FAB7
:100720007D17F98F5CC15C41DD8D4CC182809445A1
:1007300093F7060193F2F60081C7DC41B3E2F200C1
:1007400083D3050093F7F30FA5C3032305006111BD
:1007500022C226C081471304800293048004054707
:100760003316F70033F7C3006312E60293952700B0
:100770003D473317B7001347F7FF33736700B3954F
:10078000B20033E36500639D860050C985072147A9
:10079000E397E7FC12442320650082442101828014
:1007A000E39696FE10C9DDB7828019C20CC982801B
:1007B0004CC982803703014003274300931735005B
:1007C00063D00702B707C0FFF517F98F3707000797
:1007D000D98FD9CD370700F07D17798DC98F49A8FA
:1007E000635D0500B707E0FFED17F98F37070007D6
:1007F000D98FBDCD06050581D5B7B7073000931653
:1008000005013376F500C1826313F602370600F95D
:100810007D16B377C70003274300798E2322C300D8
:10082000A1C95581131745003395E60045BF9317BD
:10083000B50063D407029357050113F6F7008D47FF
:10084000B397C70093C7F7FFF98F37070007D98F12
:1008500085C1135755011207C1BF55811205339544
:10086000A6009347F5FFF98F37070007D98FBDF52D
:10087000370701405CC38280B707002023ACA70084
:100880008280371702401C430E0593F777F05D8D89
:1008900008C38280B7160240DC4241771307F77F16
:1008A000F98F5D8DC8C2828099C5371702401C4FF1
:1008B0005D8D08CF8280B7170240984F1345F5FF32
:1008C000798D88CF828099C5371702405C475D8D4E
:1008D00048C78280B7170240D8471345F5FF798D86
:1008E000C8C782801E2137370140130707C0C207DF
:1008F000C1836306E500370700406316E500BA21AF
:1009000093F7F7F8D98FFA2193F7F7CFC207C1838E
:10091000D98F1EA1DE215EB59E211EB5B7370140DD
:10092000938707C06314F5009C251EB985475EA90F
:1009300082801E31922103D32500C207C183F99B17
:10094000C207C1831EB11E3156211A2DC207C183B1
:10095000420741831377C7F8518F9225F59BC20652
:1009600033666600D18F37360140130606C0C18258
:100970006310C502B225DD9B03D3E500D18FD221E0
:10098000ED9B93F6F6CFD18FD22533666600D18EDC
:1009900056A11AADFA2158D91EB182801E2189C5EF
:1009A00093E717001EA18280C207C183F99BC2078B
:1009B000C183CDBF8357450491C52167D98F2312C9
:1009C000F5048280C607C583DDBF1E2189C593E774
:1009D00007081EA18280C207C18393F7F7F7C207F9
:1009E000C183C5BF1E2DC207C183DD9BDD8D0EAD4A
:1009F00082804CD98280EFF2AFEAB707002003A5CE
:100A00004701B7157A0093850520EFF02FEB13759A
:100A1000F50FB7070020238FA70093175500898F84
:100A20008A073E950E05B7070020239EA7006FF0AA
:040A3000CFE700000C
:100A340000FCFFFF0102030405060708010203048A
:080A440005060708006CDC0246
:00000001FF
